{
  "address": "0x8940d80D0FBd2E07468404C9487D6E58B66E61Cb",
  "abi": [
    {
      "inputs": [],
      "stateMutability": "nonpayable",
      "type": "constructor"
    },
    {
      "anonymous": false,
      "inputs": [
        {
          "indexed": true,
          "internalType": "address",
          "name": "previousOwner",
          "type": "address"
        },
        {
          "indexed": true,
          "internalType": "address",
          "name": "newOwner",
          "type": "address"
        }
      ],
      "name": "OwnershipTransferred",
      "type": "event"
    },
    {
      "inputs": [
        {
          "internalType": "address",
          "name": "",
          "type": "address"
        }
      ],
      "name": "EVTokenBalance",
      "outputs": [
        {
          "internalType": "uint256",
          "name": "",
          "type": "uint256"
        }
      ],
      "stateMutability": "view",
      "type": "function"
    },
    {
      "inputs": [
        {
          "internalType": "address",
          "name": "NewOwner",
          "type": "address"
        }
      ],
      "name": "TransferOwner",
      "outputs": [],
      "stateMutability": "nonpayable",
      "type": "function"
    },
    {
      "inputs": [],
      "name": "evToken",
      "outputs": [
        {
          "internalType": "contract EVToken",
          "name": "",
          "type": "address"
        }
      ],
      "stateMutability": "view",
      "type": "function"
    },
    {
      "inputs": [],
      "name": "getEVTokenAddress",
      "outputs": [
        {
          "internalType": "address",
          "name": "",
          "type": "address"
        }
      ],
      "stateMutability": "view",
      "type": "function"
    },
    {
      "inputs": [
        {
          "internalType": "address",
          "name": "provider",
          "type": "address"
        }
      ],
      "name": "getEVTokenBalance",
      "outputs": [
        {
          "internalType": "uint256",
          "name": "",
          "type": "uint256"
        }
      ],
      "stateMutability": "view",
      "type": "function"
    },
    {
      "inputs": [],
      "name": "getEVTokenBalanceVault",
      "outputs": [
        {
          "internalType": "uint256",
          "name": "",
          "type": "uint256"
        }
      ],
      "stateMutability": "view",
      "type": "function"
    },
    {
      "inputs": [
        {
          "internalType": "address",
          "name": "_tokenAddress",
          "type": "address"
        }
      ],
      "name": "getTokenBalance",
      "outputs": [
        {
          "internalType": "uint256",
          "name": "",
          "type": "uint256"
        }
      ],
      "stateMutability": "view",
      "type": "function"
    },
    {
      "inputs": [
        {
          "internalType": "address",
          "name": "platform",
          "type": "address"
        },
        {
          "internalType": "address",
          "name": "tokenAddress",
          "type": "address"
        },
        {
          "internalType": "uint256",
          "name": "amount",
          "type": "uint256"
        }
      ],
      "name": "invest",
      "outputs": [],
      "stateMutability": "nonpayable",
      "type": "function"
    },
    {
      "inputs": [
        {
          "internalType": "address",
          "name": "Provider",
          "type": "address"
        },
        {
          "internalType": "uint256",
          "name": "amount_deposited",
          "type": "uint256"
        },
        {
          "internalType": "address",
          "name": "_tokenAddress",
          "type": "address"
        }
      ],
      "name": "mintEVToken",
      "outputs": [],
      "stateMutability": "nonpayable",
      "type": "function"
    },
    {
      "inputs": [],
      "name": "owner",
      "outputs": [
        {
          "internalType": "address",
          "name": "",
          "type": "address"
        }
      ],
      "stateMutability": "view",
      "type": "function"
    },
    {
      "inputs": [
        {
          "internalType": "address",
          "name": "",
          "type": "address"
        },
        {
          "internalType": "address",
          "name": "",
          "type": "address"
        }
      ],
      "name": "providerTokenDeposited",
      "outputs": [
        {
          "internalType": "uint256",
          "name": "",
          "type": "uint256"
        }
      ],
      "stateMutability": "view",
      "type": "function"
    },
    {
      "inputs": [],
      "name": "renounceOwnership",
      "outputs": [],
      "stateMutability": "nonpayable",
      "type": "function"
    },
    {
      "inputs": [
        {
          "internalType": "address",
          "name": "_evToken",
          "type": "address"
        }
      ],
      "name": "setEVTokenAddress",
      "outputs": [],
      "stateMutability": "nonpayable",
      "type": "function"
    },
    {
      "inputs": [
        {
          "internalType": "uint256",
          "name": "",
          "type": "uint256"
        }
      ],
      "name": "tokenAddress",
      "outputs": [
        {
          "internalType": "address",
          "name": "",
          "type": "address"
        }
      ],
      "stateMutability": "view",
      "type": "function"
    },
    {
      "inputs": [
        {
          "internalType": "address",
          "name": "",
          "type": "address"
        }
      ],
      "name": "tokenBalance",
      "outputs": [
        {
          "internalType": "uint256",
          "name": "",
          "type": "uint256"
        }
      ],
      "stateMutability": "view",
      "type": "function"
    },
    {
      "inputs": [
        {
          "internalType": "address",
          "name": "newOwner",
          "type": "address"
        }
      ],
      "name": "transferOwnership",
      "outputs": [],
      "stateMutability": "nonpayable",
      "type": "function"
    }
  ],
  "transactionHash": "0xa631b629dd78dd937847cdeda2b579d6695b933c3c507f085914b1c7334b53f2",
  "args": [],
  "numDeployments": 2,
  "solcInputHash": "50619d271e116e079a6134103f1ec1c3",
  "bytecode": "0x6080604052606460035534801561001557600080fd5b5061001f33610024565b610074565b600080546001600160a01b038381166001600160a01b0319831681178455604051919092169283917f8be0079c531659141344cd1fd0a4f28419497f9722a3daafe3b4186f6b6457e09190a35050565b610837806100836000396000f3fe608060405234801561001057600080fd5b50600436106101005760003560e01c8063858ac4d811610097578063d17777d111610066578063d17777d11461024b578063d3ff1c201461025e578063eedc966a1461026f578063f2fde38b1461028f57600080fd5b8063858ac4d8146101d75780638da5cb5b146101ea5780639c36f9201461020f5780639e6b26ba1461022257600080fd5b80634772537f116100d35780634772537f1461017e5780634c89bfba146101a7578063653ac422146101bc578063715018a6146101cf57600080fd5b80631c0c607d14610105578063205a03ca14610120578063250638271461014b5780633aecd0e31461016b575b600080fd5b61010d6102a2565b6040519081526020015b60405180910390f35b61010d61012e3660046106bc565b600560209081526000928352604080842090915290825290205481565b61010d61015936600461069b565b60046020526000908152604090205481565b61010d61017936600461069b565b610323565b61010d61018c36600461069b565b6001600160a01b031660009081526004602052604090205490565b6101ba6101b536600461069b565b61034d565b005b6101ba6101ca3660046106ee565b610377565b6101ba610384565b6101ba6101e536600461069b565b610398565b6000546001600160a01b03165b6040516001600160a01b039091168152602001610117565b6101ba61021d366004610729565b6103ac565b6101f7610230366004610764565b6007602052600090815260409020546001600160a01b031681565b6001546101f7906001600160a01b031681565b6001546001600160a01b03166101f7565b61010d61027d36600461069b565b60066020526000908152604090205481565b6101ba61029d36600461069b565b61055f565b6001546040516370a0823160e01b81523060048201526000916001600160a01b0316906370a082319060240160206040518083038186803b1580156102e657600080fd5b505afa1580156102fa573d6000803e3d6000fd5b505050506040513d601f19601f8201168201806040525081019061031e919061077c565b905090565b600061032d6105da565b506001600160a01b0381166000908152600660205260409020545b919050565b6103556105da565b600180546001600160a01b0319166001600160a01b0392909216919091179055565b61037f6105da565b505050565b61038c6105da565b6103966000610634565b565b6103a06105da565b6103a98161055f565b50565b6103b46105da565b6001600160a01b0380821660008181526006602090815260408083208790559387168252600581528382208383528152838220869055600280548352600790915292812080546001600160a01b0319169092179091558154600192919061041c908490610794565b909155505060035460009060649061043585600a6107cc565b61043f91906107cc565b61044991906107ac565b90506000606460035485605a61045f91906107cc565b61046991906107cc565b61047391906107ac565b600154604051630f38ca0d60e31b81526001600160a01b038881166004830152602482018690529293509116906379c6506890604401600060405180830381600087803b1580156104c357600080fd5b505af11580156104d7573d6000803e3d6000fd5b5050600154604051630f38ca0d60e31b8152306004820152602481018590526001600160a01b0390911692506379c650689150604401600060405180830381600087803b15801561052757600080fd5b505af115801561053b573d6000803e3d6000fd5b505050506001600160a01b0394909416600090815260046020526040902055505050565b6105676105da565b6001600160a01b0381166105d15760405162461bcd60e51b815260206004820152602660248201527f4f776e61626c653a206e6577206f776e657220697320746865207a65726f206160448201526564647265737360d01b60648201526084015b60405180910390fd5b6103a981610634565b6000546001600160a01b031633146103965760405162461bcd60e51b815260206004820181905260248201527f4f776e61626c653a2063616c6c6572206973206e6f7420746865206f776e657260448201526064016105c8565b600080546001600160a01b038381166001600160a01b0319831681178455604051919092169283917f8be0079c531659141344cd1fd0a4f28419497f9722a3daafe3b4186f6b6457e09190a35050565b80356001600160a01b038116811461034857600080fd5b6000602082840312156106ac578081fd5b6106b582610684565b9392505050565b600080604083850312156106ce578081fd5b6106d783610684565b91506106e560208401610684565b90509250929050565b600080600060608486031215610702578081fd5b61070b84610684565b925061071960208501610684565b9150604084013590509250925092565b60008060006060848603121561073d578283fd5b61074684610684565b92506020840135915061075b60408501610684565b90509250925092565b600060208284031215610775578081fd5b5035919050565b60006020828403121561078d578081fd5b5051919050565b600082198211156107a7576107a76107eb565b500190565b6000826107c757634e487b7160e01b81526012600452602481fd5b500490565b60008160001904831182151516156107e6576107e66107eb565b500290565b634e487b7160e01b600052601160045260246000fdfea2646970667358221220522f30912203a6af7b43d9418b58fbaea67392299990206adaf92187dbf652aa64736f6c63430008040033",
  "devdoc": {
    "kind": "dev",
    "methods": {
      "owner()": {
        "details": "Returns the address of the current owner."
      },
      "renounceOwnership()": {
        "details": "Leaves the contract without owner. It will not be possible to call `onlyOwner` functions anymore. Can only be called by the current owner. NOTE: Renouncing ownership will leave the contract without an owner, thereby removing any functionality that is only available to the owner."
      },
      "transferOwnership(address)": {
        "details": "Transfers ownership of the contract to a new account (`newOwner`). Can only be called by the current owner."
      }
    },
    "version": 1
  },
  "userdoc": {
    "kind": "user",
    "methods": {},
    "version": 1
  },
  "storageLayout": {
    "storage": [
      {
        "astId": 7,
        "contract": "contracts/Vault.sol:Vault",
        "label": "_owner",
        "offset": 0,
        "slot": "0",
        "type": "t_address"
      },
      {
        "astId": 2289,
        "contract": "contracts/Vault.sol:Vault",
        "label": "evToken",
        "offset": 0,
        "slot": "1",
        "type": "t_contract(EVToken)1350"
      },
      {
        "astId": 2291,
        "contract": "contracts/Vault.sol:Vault",
        "label": "tokenID",
        "offset": 0,
        "slot": "2",
        "type": "t_uint256"
      },
      {
        "astId": 2294,
        "contract": "contracts/Vault.sol:Vault",
        "label": "DISTRIBUTION_POINT",
        "offset": 0,
        "slot": "3",
        "type": "t_uint256"
      },
      {
        "astId": 2301,
        "contract": "contracts/Vault.sol:Vault",
        "label": "EVTokenBalance",
        "offset": 0,
        "slot": "4",
        "type": "t_mapping(t_address,t_uint256)"
      },
      {
        "astId": 2307,
        "contract": "contracts/Vault.sol:Vault",
        "label": "providerTokenDeposited",
        "offset": 0,
        "slot": "5",
        "type": "t_mapping(t_address,t_mapping(t_address,t_uint256))"
      },
      {
        "astId": 2311,
        "contract": "contracts/Vault.sol:Vault",
        "label": "tokenBalance",
        "offset": 0,
        "slot": "6",
        "type": "t_mapping(t_address,t_uint256)"
      },
      {
        "astId": 2315,
        "contract": "contracts/Vault.sol:Vault",
        "label": "tokenAddress",
        "offset": 0,
        "slot": "7",
        "type": "t_mapping(t_uint256,t_address)"
      }
    ],
    "types": {
      "t_address": {
        "encoding": "inplace",
        "label": "address",
        "numberOfBytes": "20"
      },
      "t_contract(EVToken)1350": {
        "encoding": "inplace",
        "label": "contract EVToken",
        "numberOfBytes": "20"
      },
      "t_mapping(t_address,t_mapping(t_address,t_uint256))": {
        "encoding": "mapping",
        "key": "t_address",
        "label": "mapping(address => mapping(address => uint256))",
        "numberOfBytes": "32",
        "value": "t_mapping(t_address,t_uint256)"
      },
      "t_mapping(t_address,t_uint256)": {
        "encoding": "mapping",
        "key": "t_address",
        "label": "mapping(address => uint256)",
        "numberOfBytes": "32",
        "value": "t_uint256"
      },
      "t_mapping(t_uint256,t_address)": {
        "encoding": "mapping",
        "key": "t_uint256",
        "label": "mapping(uint256 => address)",
        "numberOfBytes": "32",
        "value": "t_address"
      },
      "t_uint256": {
        "encoding": "inplace",
        "label": "uint256",
        "numberOfBytes": "32"
      }
    }
  }
}